:020000040800F2
:10000000600A00206D0100087501000877010008F2
:10001000790100087B0100087D0100080000000054
:100020000000000000000000000000007F01000848
:10003000810100080000000083010008850100081C
:100040008701000887010008870100088701000870
:100050008701000887010008870100088701000860
:100060008701000887010008870100088701000850
:100070008701000887010008870100088701000840
:100080008701000887010008870100088701000830
:100090008701000887010008870100088701000820
:1000A0008701000887010008870100088701000810
:1000B0008701000887010008870100088701000800
:1000C00087010008870100088701000887010008F0
:1000D00087010008870100088701000887010008E0
:1000E00087010008870100088701000800F002F876
:1000F00000F02CF80AA090E8000C82448344AAF196
:100100000107DA4501D100F021F8AFF2090EBAE893
:100110000F0013F0010F18BFFB1A43F0010318473B
:10012000AC070000BC0700000023002400250026C7
:10013000103A28BF78C1FBD8520728BF30C148BF4A
:100140000B6070471FB51FBD10B510BD00F063F800
:100150001146FFF7F7FF00F092FB00F081F803B4BF
:10016000FFF7F2FF03BC00F089F800000948804760
:1001700009480047FEE7FEE7FEE7FEE7FEE7FEE789
:10018000FEE7FEE7FEE7FEE704480549054A064BA1
:100190007047000005080008ED000008600400201A
:1001A000600A0020600600206006002010B5203A9A
:1001B000C0F00B80B1E81850203AA0E81850B1E820
:1001C0001850A0E81850BFF4F5AF5FEA027C24BFD6
:1001D000B1E81850A0E8185044BF18C918C0BDE8CD
:1001E00010405FEA827C24BF51F8043B40F8043B96
:1001F00008BF7047D20728BF31F8023B48BF11F84B
:10020000012B28BF20F8023B48BF00F8012B7047A4
:10021000704770477047754600F02CF8AE460500F1
:100220006946534620F00700854618B020B5FFF711
:10023000ABFFBDE820404FF000064FF000074FF045
:1002400000084FF0000B21F00701AC46ACE8C009F4
:10025000ACE8C009ACE8C009ACE8C0098D467047FD
:1002600010B50446AFF300802046BDE81040FFF70C
:1002700076BF0000004870470004002001491820A4
:10028000ABBEFEE7260002007047000035498969D1
:1002900041F00801334A91611146C96941F40011E6
:1002A000D1611146C96900202F49096841F07F4199
:1002B0002D4A11602D49098821F001012B4A118036
:1002C0002A490C39098821F04001284A0C3A11804A
:1002D0001146098821F0800111801146098821F01A
:1002E00001011180111D098821F03F0141F0240115
:1002F000121D11801D491431098821F03F0141F080
:100300000B011A4A14321180111F09884CF6FF7232
:10031000914348F21E021144144A103211801349CD
:10032000091F098848F2FF329143491C0F4A121FE6
:1003300011800E490C39098821F01A010B4A0C3A38
:1003400011801146098841F0010111801146098888
:1003500041F4806111800549098821F0FE01034ABA
:100360001180704700100240000C01400C54004006
:1003700070B504463048008820F400602E4D288077
:100380002846008840F4806028802846008840F491
:100390008070288000BF28481430008800F00100D9
:1003A0000028F8D0244814300088234810300088F2
:1003B00020F0FF0040EA44001F4D1035288000BFA8
:1003C0001D481430008800F002000028F8D01A48B8
:1003D00014300088184818300088174810300088FA
:1003E00020F0FF000843144D1035288000BF12484C
:1003F0001430008800F080000028F8D0002012E0BF
:100400000D4D10352D8825F0FF05165C35430A4E3D
:100410001036358000BF084D14352D8805F0800555
:10042000002DF8D0401C9842EAD30348008840F4DD
:100430000070014D288070BD00540040002003E092
:100440000021034A1154401CB0F5806FF8D3704767
:1004500000000020F0B587B004460D4617461E4642
:100460001C220FA16846FFF7A1FE8DF806700DB1A2
:10047000A72000E0A6208DF808008DF81160002C60
:1004800001DDFFF703FF19236A4600213C20FFF737
:100490006FFFFFF7D3FF00F011F807B0F0BD0000C9
:1004A000AEC80010008100A100A83FA4D300D55021
:1004B000D900DA12DB208D14AF00000010B5A2B015
:1004C000002426E0002006E000EBC411134A515C32
:1004D00002AA1154401C8028F6D311A00068019094
:1004E000032301AA00213C20FFF742FF0DA0006872
:1004F00000908DF8014003236A4600213C20FFF75D
:1005000037FF802302AA40213C20FFF731FF601C07
:10051000C4B2082CD6DB22B010BD000000000020C1
:1005200021007F002200070010B50246002003E0F2
:10053000135C034C2354401CB0F5806FF8D310BDFE
:10054000000000201E49896944F2040211431C4A3C
:100550009161114688691B49096841F01001194AE7
:1005600011601146096841F02001116011460968C7
:1005700021F0400111601146096841F080011160CD
:100580001146096821F4807111601146096821F44F
:10059000007111601146096841F4806111601146D3
:1005A000096821F40061116040F27121064A11804E
:1005B000111D098841F40051121D1180704700007F
:1005C0000010024004080140083801400C4800882F
:1005D00020F008000A4908800846008840F004001E
:1005E000088000E000BF06480C38008800F02000BA
:1005F0000028F7D0024808380088C0B270470000D1
:100600000C38014002460F48008820F008000D4BCE
:1006100018801846008840F00400188000200DE083
:1006200000E000BF074B0C3B1B8803F02003002BAE
:10063000F7D0044B083B1B881354401C8842EFD36F
:10064000704700000C3801400B49098821F0040173
:10065000094A11801146098841F0080111800649B4
:100660000839088000BF04490C39098801F04001AD
:100670000029F8D0704700000C38014010B5ADF5E6
:10068000826D0020CDF80404CDF80804CDF80C04E8
:100690000A210DF20440FFF7B5FF9DF804048028FD
:1006A00008D19DF80504402804D1DDF80604B0F512
:1006B000806F03D00520FFF7C7FF24E0002403204C
:1006C000FFF7C2FF4FF4806101A8FFF79BFF0020F6
:1006D00003E001A9095C0C44401CB0F5806FF8D31D
:1006E000DDF80A04A04203D00420FFF7ADFF09E0C3
:1006F0004FF4806101A8FFF717FFFFF7DFFE03202B
:10070000FFF7A2FF00BF0DF5826D10BD10B5FFF71A
:100710005DFF04462046FFF797FF10BD10B500F0BF
:1007200001F810BD0CB5002001900090334800681E
:1007300040F480303149086000BF3048006800F460
:10074000003000900198401C0190009818B9019861
:10075000B0F5A06FF1D12948006800F4003010B165
:100760000120009001E0002000900098012843D172
:100770002348006840F010002149086008460068DE
:1007800020F0030008600846006840F0020008609E
:100790001A48406819494860084640684860084659
:1007A000406840F4806048600846406820F47C104F
:1007B00048600846406840F4E81048600846006811
:1007C00040F08070086000BF0C48006800F00070C6
:1007D0000028F9D00948406820F003000749486024
:1007E0000846406840F00200486000BF0348406887
:1007F00000F00C000828F9D10CBD000000100240E8
:100800000020024010B51348006840F00100114973
:10081000086008464068104908400E49486008468C
:1008200000680E4908400B4908600846006820F43B
:10083000802008600846406820F4FE0048604FF4BD
:100840001F008860FFF76AFF4FF0006004490860EE
:1008500010BD0000001002400000FFF8FFFFF6FE90
:1008600008ED00E0002107E0002201E000BF521C7B
:10087000B2F5FA5FFAD3491C8142F5D37047642080
:10088000FFF7F0FFFFF75EFE25231A460021012047
:10089000FFF7E0FD18E0FFF799FE0446012C02D0B7
:1008A000022C0CD105E00320FFF7CEFEFFF72EFF50
:1008B00009E00320FFF7C8FEFFF7E0FE03E0062093
:1008C000FFF7C2FE00BF00BFE5E70000DC0800083C
:0C08D00000000020600A00002801000861
:04000005080000ED02
:00000001FF
